:100000000C9413030C94B92D0C9430030C9430030E
:100010000C9430030C9430030C9430030C94300394
:100020000C9430030C9430030C94DF250C949B2526
:100030000C94DC260C9430030C9430030C943003A5
:100040000C9430030C9430030C9430030C94300364
:100050000C9430030C94B8260C9430030C943003A9
:100060000C9430030C9430030C9430030C94300344
:100070000C9430030C9430030C9430030C94300334
:100080000C9430030C9430030C9430030C94300324
:100090000C9430030C9430030C9430030C94300314
:1000A0000C9430030C9430030C9430030501098048
:1000B000A101850319012AB700150126B700950192
:1000C00075108100C0050C0901A101850419012AE0
:1000D000A002150126A002950175108100C005013E
:1000E0000906A1018506050719E029E71500250184
:1000F0009508750181020507190029EF15002501F2
:1001000095F075018102050819012905950575010C
:100110009102950175039101C00660FF0961A1017B
:100120000962150026FF00952075088102096315F4
:100130000026FF00952075089102C005010906A15F
:1001400001050719E029E7150025019508750181CA
:10015000029501750881010507190029FF15002680
:10016000FF00950675088100050819012905950508
:1001700075019102950175039101C0FD377A585AB6
:10018000000004E6D6B44602002101160000007407
:100190002FE5A3E0041001475D003D8889C6543671
:1001A000C3174FE4EFAD260056325AD922955512A7
:1001B000BAFB45FFD7A8E17D0D0C7B6B1FEDA12D90
:1001C0007E417228CD2030F6B1E186A4229A49FA08
:1001D000A158A0FFFA47837C9307EFAD3E684BCB55
:1001E0000C2D03E6A8DB77FA639A35DA410D2ECDA4
:1001F0008992D50A019415F47A8124B7CCA588C2D6
:10020000A14B2B19A1CDFAFF79F3C4FCF2450CE800
:1002100075ED8147AE232ACA26E48A5822205F8FD3
:100220009A64F5A4A542313EACC9A7EE4BDC436409
:10023000AD1CDBC36D7CD6B518F1DEAE5690CC524A
:1002400031A224E278FFAB7B219CC287781CF4FAB0
:10025000B5313750CACD56C14414319A53DBAEA6DE
:10026000D2A1175A77AE6C71CEBC8145634FC8F8E6
:100270000EAF1EA37626572DE61F90976CE0C36441
:1002800046DD785D2ED6BBCA52D611BF474DD44E3F
:100290005AAF8A0270B4C6ACB68D17CCADD0788395
:1002A0005DE0FA399DEB056BDBC909554916C42D94
:1002B0003D875E4DBEBAC48CDA00B7F50F7C91A6BF
:1002C00026161FFE09585FA1CEF7D62A603BF6FB23
:1002D00031B1A8F121CFBFB72090E0F00F1675DA49
:1002E000000000F257C161A072495A0001E3029177
:1002F000080000E839AA22B1C467FB020000000030
:1003000004595A290014001A000800150017002F7C
:1003100000015104001600070009000A002D00E04A
:10032000001D001B0006001900050003510000001D
:10033000000000E300E0000251E10030001C001862
:10034000000C001200130031002E000B000D000EF7
:10035000000F003300340003511100100036003745
:1003600000380001512C0002510100E4000000009F
:100370000000003500010001000100010001000142
:10038000003900E0004C0027004600010001000198
:10039000000100E2002B000100010001000000004C
:1003A00000000001002C0028002A000100010001CB
:1003B000000100010001000100A80001000100018E
:1003C000005200010001000100AA00A900500051E4
:1003D000004F0001002A0028000100010000000079
:1003E00000000001001E001F00200021002200016B
:1003F000002B002300240025002600270001000117
:1004000000010001000100010001000100000000E6
:100410000000000100010001000100010023002490
:100420000025002600270001000100010001000155
:1004300000010001000100010001000100010001B4
:1004400000010001000100010001000100000000A6
:1004500000000001003A003B003C003D003E00016E
:100460000001003F00400041004200430001000144
:100470000001000100010001000100010000000076
:10048000000000010001000100010001003F0040E8
:100490000041004200430001000100010001000191
:1004A0000001000100010001000100010001000144
:1004B0000001000100010001000100010000000036
:1004C00000000009025B00030100A0FA090400001B
:1004D000010301010009211101000122400007056B
:1004E0008103080001090401000203000000092142
:1004F00011010001222200070582032000010705E7
:100500000303200001090402000103000000092187
:1005100011010001226D0007058403200001120172
:1005200000020000000801006060000101020301F8
:100530001C037600690061006C003A00660036001A
:1005400034006300320062003300630000000E03D9
:1005500063006800750072007200690000001203F9
:100560006C0065006100660066006C00610074004C
:100570000000040309040000000000000000000067
:10058000000000000000000000000000000000006B
:10059000000000000000000000007E0F00D4FFFFFC
:1005A000FFC70000007800000000000000002A2BB8
:1005B0002800000000000000000000000000000013
:1005C0000029000000002C1E34202122243426277C
:1005D000252E362D3738271E1F202122232425269D
:1005E0003333362E37381F0405060708090A0B0C6B
:1005F0000D0E0F101112131415161718191A1B1CB3
:100600001D2F3130232D350405060708090A0B0C70
:100610000D0E0F101112131415161718191A1B1C92
:100620001D2F3130354C11241FBECFEFDAE0DEBF75
:10063000CDBF11E0A0E0B1E0ECE8FFE502C005901D
:100640000D92AE37B107D9F724E0AEE7B1E001C0B3
:100650001D92A439B207E1F70E9403270C94992F49
:100660000C940000FC01AC014C5F5F4F8FEF91E3F5
:100670002191822728E030E087FF09C0880F892771
:1006800021503109C9F7E417F50791F70895880F4C
:10069000F7CFE8EDF0E080818E7F80831092E2005A
:1006A0001092DA001092E100A0EEB0E08C9181602F
:1006B0008C9380818F77808319BCA7EDB0E08C91FB
:1006C0008E7F8C9380818F7E808310926404089546
:1006D0002091E4003091E50095E6A9012091EC001D
:1006E000822F817020FF06C08091E80080FF06C045
:1006F00080E008952091E80022FD1AC080919204C4
:10070000882389F0853089F08091EB0085FD0FC04A
:100710002091E4003091E50042175307F9F291501F
:10072000E1F684E0089582E0089583E0089581E091
:100730000895EF92FF920F931F93CF937C018B014B
:100740000E946803C82F811117C08091E80085FDC1
:100750000BC08091E8008E778093E8000E946803C8
:10076000882399F3C82F08C0F70181917F018093F6
:10077000F1000150110949F78C2FCF911F910F9172
:10078000FF90EF900895CF93FC0180919204843004
:1007900001F5C091E900CF702091EC00922F91708B
:1007A00020FD90E8C92B82E08093E9008091E80069
:1007B00080FF0CC050E040E060E270E0CF010E949A
:1007C00099038091E8008E778093E800CF70C09302
:1007D000E900CF91089580918A0487FF13C080912A
:1007E000E80082FF06C08091E8008B778093E800E4
:1007F00004C0809192048111F2CF089580919204F7
:100800008823D9F38091E80080FFF8CF8091E80039
:100810008E77ECCF982F9093E900242F762F50E01D
:10082000891731F07091EC002091ED005091F000AB
:1008300021FD07C09F5F973071F78093E90081E049
:1008400008953091EB003E7F3093EB003091ED0046
:100850003D7F3093ED003091EB0031603093EB0041
:100860007093EC002093ED005093F0002091EE0087
:1008700027FDE0CF80E00895B0E0A0E0E2E4F4E0FE
:100880000C94DF2EC8EDD0E088818F7E8883E7ED61
:10089000F0E080818160808384E082BF81E080938A
:1008A000640488818E7F888302EE10E0F801108254
:1008B0001092DA0081EEC82ED12CF60110828881C8
:1008C0008F77888388818068888388818F7D8883FB
:1008D00019BC10929204109289041092880410920C
:1008E000870490EEE92EF12CF70180818B7F8083C5
:1008F00088818160888342E060E080E00E940A0491
:10090000F60180818E7F8083F80180818160808301
:10091000808188608083F70180818E7F80838881D9
:1009200080618883CDB7DEB7E8E00C94FB2EFC0134
:10093000809190049091910486179707A0F061151B
:10094000710529F49091E8009E779093E80090E07B
:100950006115710551F4911108C08091E80082FF82
:1009600034C080E00895BC01F2CF809192048823C6
:10097000C1F18530C1F18091E80083FD30C08091E4
:10098000E80082FDEACF8091E80080FFE1CF80910E
:10099000F3002091F200382F6115710519F028300D
:1009A000310558F091E02830310509F090E02091B0
:1009B000E8002E772093E800CBCF81918093F1005F
:1009C000615071092F5F3F4FE7CF809192048823D8
:1009D00041F0853041F08091E80083FFBECF81E097
:1009E000089582E0089583E0089508950895809120
:1009F0006604089587E797E79093010880930008BD
:100A000088E19AE00FB6F894A895809360000FBE35
:100A100090936000FFCF9C014FB7F89480915B04E6
:100A200090915C04A0915D04B0915E044FBF821B65
:100A3000930B08952FB7F89460915B0470915C0458
:100A400080915D0490915E042FBF08952FB7F894B4
:100A500080915B0490915C04A0915D04B0915E0470
:100A60002FBF0895209127012223C1F020915F0418
:100A700027FF14C0E62FE695E695E695EE31F8F4EB
:100A8000E80FF92FF11D677021E030E001C0220F5F
:100A90006A95EAF78281822B82830895FC0132965F
:100AA0002FEF30E04191641751F02F3F19F44111BD
:100AB00001C0232F3F5F3630A9F72F3F09F4089577
:100AC000820F911D27FD9A95FC0162830895209164
:100AD0005804309159042817390771F0909359043C
:100AE00080935804E0915604F0915704309721F018
:100AF0000084F185E02D09950895209154043091EA
:100B000055042817390771F09093550480935404C5
:100B1000E0915604F0915704309721F00680F78158
:100B2000E02D09950895CF93DF93EC0140914204A5
:100B30005091430460914404709145042FB7F89498
:100B400080915B0490915C04A0915D04B0915E047F
:100B50002FBF841B950BA60BB70B843F9140A105BB
:100B6000B10518F58091420490914304A09144048A
:100B7000B091450480933E0490933F04A0934004B9
:100B8000B093410484EF91E0A0E0B0E080933A0498
:100B900090933B04A0933C04B0933D04D0934A044B
:100BA000C0934904DF91CF9108950E941A05609384
:100BB0003E0470933F04809340049093410482E389
:100BC00090E0A0E0B0E0E2CFFC018481862351F404
:100BD00092819923B9F06923808583FF05C081E064
:100BE00061110FC080E00895892F8F7092959F70DA
:100BF000982B862F8F7062956F70682B81E096130B
:100C0000F1CF089581E0FDCF452B39F0682381E0D5
:100C10006F3F09F080E08170089581E0FCCFDC0136
:100C20006091360480913704962F891301C008958E
:100C3000292F30E0F901EE0FFF1FE25DFB4F4081ED
:100C400051814A175B07A1F487E08A9FA0018B9F1F
:100C5000500D11244E5E5B4F81E0FA0184839613A0
:100C6000E6CF2F5F3F4F237033272093360408953C
:100C70002F5F3F4F922F9370D8CF1092AF031092F7
:100C8000AE03E2E1F4E08581811102C01482168294
:100C9000379684E0EE32F807B1F70895E5E8F2E020
:100CA00090E080E060E075E247E255E221E834E25E
:100CB0007783668351874087338722879587848728
:100CC00001963E968830910599F7089581152CE597
:100CD000920741F42091A8033091A903232B11F42A
:100CE00090E080E0089580E00895F894E82FE29580
:100CF000EF70F0E031A1282F2F7081E090E001C06B
:100D0000880F2A95EAF7982F9095932391A392A1A3
:100D1000892B82A37894089590915F0492FF06C076
:100D2000282F28712830F9F4877F846093FF06C04C
:100D3000282F28712831F1F4877E84612091600486
:100D400020FF06C0382F38713830D9F4877F816092
:100D500021FF06C0282F28712831D1F4877E8161B8
:100D600094FD877E0895282F24712430F9F68B7F17
:100D70008860DCCF282F2471243101F78B7E8861B5
:100D8000DDCF382F3171313019F78E7F8860E0CF99
:100D9000282F2171213121F78E7E8861E1CFCF93F9
:100DA000DF93EC0182389105B1F108F040C0813346
:100DB000910509F49DC048F58932910509F48DC06B
:100DC0008A9709F49CC0C11522E5D20708F0BDC07E
:100DD000C11531E5D30708F025C1C83ED10508F09B
:100DE000A3C0C13ED10588F5C83AD10508F08EC030
:100DF000C53AD10508F0F6C0C130D10531F12097D0
:100E000021F1C430D10508F545C08533910509F4B9
:100E10005FC0C997C1F680915F04837009F037C144
:100E20008091600483FF11C0C9E2D0E00EC0833E10
:100E3000910599F170F4803E910501F1823E910592
:100E400011F680915F0482FD21C0CE01DF91CF9128
:100E50000895863E910561F1873E910571F1843ECA
:100E6000910509F0B0CF8091600481FFEECF8091B1
:100E70005F04C7EED0E084FD0DC0E7CF80915F0432
:100E800080FD33C09091600490FFDFCFC3EED0E0CF
:100E900084FFDBCFD0E0C0E0D8CF80915F0482FD3B
:100EA000F3C09091600490FDF2C084FFCECFF2CFEA
:100EB00080915F0483FDDDCFC8CF80915F0483FD07
:100EC000E9C09091600491FFF0CFC4EED0E0BDCFB7
:100ED00080915F0485FFB9CFA7CF80915F0485FD26
:100EE000DCC08091600483FFB0CFC9E3D0E0ADCF18
:100EF00080915F0486FFA9CFCAE2D0E0A6CF80919F
:100F00005F0486FFA2CFC1E3D0E09FCFCF3BD105E6
:100F100008F6C85AD0E0CC0FDD1FCD5CDE4F09903B
:100F2000D881C02DD46491CFC11540E5D40708F015
:100F300064C0C11580E4D80708F05CC0CE019A9562
:100F400081159F4108F481CFA5CFC11536E5D307A0
:100F500018F5C11545E5D40708F07DC0C11584E535
:100F6000D80708F073C09C2F969596959E01237024
:100F70003327C115D34508F45AC0C1E0D0E002C000
:100F8000CC0FDD1F2A95E2F730E2939FC0011124B8
:100F9000C82BD92BDA6859CFC1158AE5D80778F460
:100FA000C11529E5D20708F061C0C11538E5D3079E
:100FB00008F470CFDC2FCC27C06FD06A46CFCE01AB
:100FC00090568115904208F065CF8D2F8F710E9449
:100FD0008C0690E0982F882788279F719C012C2BE6
:100FE000E90142C0C55AD0E0C05DDE4FC881D0E003
:100FF000D0642BCFDF70D06A28CF2C2F2695269572
:10100000237080E2289F900111248C2F8370C1E00F
:10101000D0E002C0CC0FDD1F8A95E2F7C22BD32BA4
:10102000DD6813CFDC2FCC27C16FD06A0ECFC1E0B3
:10103000D0E002C0CC0FDD1F2A95E2F720E2929F9C
:10104000C0011124C82BD92BDC68FFCEDC2FCC27A4
:10105000C46FD06AFACE8C2F0E948C06C82FD0E0C5
:10106000DC2FCC27CC27DF71D062EFCE8C2F8F7096
:101070000E948C0634E0D695C7953A95E1F7CF707B
:101080009C2FEC01D069E1CEC2EED0E0DECEC0EE06
:10109000D0E0DBCEC6EED0E0D8CEC5E3D0E0D5CEF2
:1010A00080912802882331F01092280210922702A2
:1010B0001092260208958095909150049823909361
:1010C0005004089580959091510498239093510471
:1010D00008951092050210920402109203020895DE
:1010E000909127019923D1F090915F0497FF16C04A
:1010F000E82FE695E695E695EE31E0F4F0E0E0586D
:10110000FE4F282F277081E090E001C0880F2A95BC
:10111000EAF780959281892382830895E2E8F1E0DD
:101120009191891303C0DF0111971C9291E0E83877
:10113000F907B1F70895809102029091C1019813C7
:1011400001C008958F5F8770FACF292F983078F506
:10115000873068F590E037E0239F800D911D1124C2
:10116000682F677023E0969587952A95E1F7FC0133
:10117000EE0FFF1FE80FF91FEC55FE4F50E040E067
:1011800080E0219130E0062E02C0369527950A9422
:10119000E2F721703327042E01C0220F0A94EAF7E8
:1011A000822B4F5F5F4F4330510559F7089580E020
:1011B0000895292F983098F5873088F590E037E02A
:1011C000239F800D911D1124282F277041E001C01D
:1011D000440F2A95EAF723E0969587952A95E1F73B
:1011E000FC01EE0FFF1FE80FF91FEC55FE4F30E03A
:1011F00020E070E05191DF011197CB01022E02C077
:10120000969587950A94E2F78170819585278423C6
:1012100085278C932F5F3F4F2330310559F7089571
:101220009C013A9521153F4150F5FC01EE27F170E4
:10123000BC0166277270AC01442754709C012227C0
:10124000387094FF0EC080E1EF2B09F480E0672B2B
:1012500009F08062452B09F08064232B89F08068B7
:10126000089581E0EF2B09F480E0672B09F082609C
:10127000452B09F08460232B19F08860089580E0E5
:101280000895809361047093630460936204809175
:1012900092048430F9F48093E9008FEF9091E80094
:1012A000815095FD06C095ED9A95F1F700008111EA
:1012B000F5CF8091E80085FF0DC050E040E063E08D
:1012C00070E081E694E00E9499038091E8008E77B7
:1012D0008093E8000895BC0184E00E9441090895CC
:1012E000BC0183E00E9441090895CF93DF93EC0194
:1012F000809127018823B1F180915F0487FF32C07C
:1013000060E284E08093E9008FEF9091E8008150E3
:1013100095FD06C095ED9A95F1F700008111F5CF86
:101320008091E80085FF1BC08091270170E050E0AC
:1013300040E0811104C050E040E068E070E0CE0180
:101340000E9499038091E8008E778093E80080E204
:10135000FE01A7E6B4E001900D928A95E1F7DF91D6
:10136000CF91089568E081E0CDCFB0E0A0E0EBEB55
:10137000F9E00C94DD2E7C015B016A0180914A0248
:1013800001E010E08A3010F40AE010E0C1E0D0E0A3
:10139000B501C701F6010995811104C021960C170A
:1013A0001D072CF4CDB7DEB7EAE00C94F92ECC9FE4
:1013B0009001CD9F300D300D112490E080E045E389
:1013C0004A95F1F70000019682179307C1F7E0CF25
:1013D00080913402811110C08091D8008061809387
:1013E000D8008AE18A95F1F700C08091D90080FF8A
:1013F0000AC081E08093340281E090913402913000
:1014000009F080E0089582E0809334020E9449034D
:1014100010929204F1CF0E94E809882359F0E091DC
:101420005604F0915704309729F00190F081E02D97
:101430000995089580E00895CF93DF93CFEAD2E035
:1014400060E0CE010E945D2F2196C11584E0D8078F
:10145000B9F7DF91CF9108951F93CF93DF93122FA8
:101460008430E0F46830D0F44730C0F4C42FD0E0CA
:10147000CC0FDD1F9EE0699FC00DD11D112490E7A8
:10148000899FC00DD11D1124632FCE0187960E9424
:101490005D2F612FCE0188960E945D2FDF91CF9145
:1014A0001F910895CF93C82F6FEF811169EE83E2EA
:1014B00090E00E945D2F6FEFC11160E384E290E045
:1014C0000E945D2F6FEFC1116CE485E290E00E94F5
:1014D0005D2FCF910895AEE1B0E0E1E7FAE00C9422
:1014E000DA2EE090A803F090A90381E090E09093B9
:1014F000A9038093A80393E0A92E93E0B92E00E0FE
:10150000650110E015C0F40125913491472D612F3C
:10151000802F0E942C0A82E0880E911C7394E7E0D1
:101520007E12F1CFFEE0CF0ED11C1F5F183019F0F4
:101530004601712CE8CF0F5F80E7A80EB11C043084
:10154000F9F61A8219821C821B821E821D8218865D
:101550001F8288EC90E09A87898707EE11E04AE0C5
:1015600050E0B801CE0101960E94812F065F1F4F07
:101570000733E2E01E0799F78AE0B82E8E01055F77
:101580001F4FF8018B2D11928A95E9F74AE050E040
:1015900067E372E0C8010E94812F4AE050E061E4F5
:1015A00072E0C8010E94812F4AE050E06BE472E0D3
:1015B000C8010E94812F4AE050E065E572E0C80151
:1015C0000E94812F6E01E5E1CE0ED11CF601119231
:1015D000BA94E9F78FEF9FEF9A8F898F87E08E8F0C
:1015E0000FE512E04AE050E0B801C6010E94812FE9
:1015F000065F1F4F0F3AF2E01F07A1F7F092A90311
:10160000E092A8036E96EDE00C94F62E80E00E9426
:10161000520A60E086E290E00E945D2F0E946B0A11
:101620000E941C0A81E00E94520A08959B018830A2
:1016300070F49AE0899FB001112469517E4F4AE00D
:1016400050E0C9010E943F2F90E080E008958FEFA5
:101650009FEF0895AAE0B0E0E0E3FBE00C94E52EF4
:101660009C0137552F3F310509F068F4BE016F5FCB
:101670007F4F0E94160B892B31F489859A852A9613
:10168000E2E00C94012F88EC90E0F9CF0F931F93C8
:10169000CF93DF93843030F5683020F5473010F574
:1016A000C42FD0E0CC0FDD1F2EE0629FC00DD11DF6
:1016B000112430E7839FC00DD11D1124CE018796E0
:1016C0000E944F2F082F10E0102F0027CE01889680
:1016D0000E944F2F9801282BC901DF91CF911F91B4
:1016E0000F91089590E080E0F8CF462F2091AC0351
:1016F0003091AD03232B99F4703F39F4603F79F4B6
:101700008091AA039091AB030895843040F478301F
:1017100030F4673020F4672F0E94460B089590E064
:1017200080E00895CF92DF92FF920F931F93CF93A3
:10173000DF936C010091930480912902082BC7E08C
:10174000D0E010E0FC2EC8010C2E02C095958795C4
:101750000A94E2F780FD0CC02197A0F7F12C8F2DA1
:10176000DF91CF911F910F91FF90DF90CF9008955F
:10177000B6018C2F0E94750B0E94CF06019761F372
:10178000EECFCF93DF93EC010E94920BBE010E943B
:10179000750B0E94CF06DF91CF9108950F931F9391
:1017A000CF938C01FC0143815481618180810E942F
:1017B0000406C82F81112AC0F801868197810097FD
:1017C00091F00E94CF0692959F709630D1F080F4F0
:1017D000925F9F70923080F4803F19F058F4883EF9
:1017E00058F4C1E009C0808191810E94C10BEBCF08
:1017F0009A5FEFCF843FA9F38C2FCF911F910F9168
:101800000895883E70F3813FB9F7EBCFC0E0F4CF85
:10181000A5E0B0E0EEE0FCE00C94E42E9C01FC01BD
:10182000868197810097E1F485E0DE0111960190B1
:101830000D928A95E1F7F901228189819A8122230B
:1018400099F0662389F00E94920B182F682F8981E6
:101850009A810E94D90869817A81812F0E94750B33
:101860002596E3E00C94002F0E94A508182FF3CFD3
:1018700083E290E00E944F2F893E89F484E290E059
:101880000E944F2F803359F485E290E00E944F2F41
:1018900091E08C3409F090E0892F8170089580E008
:1018A000FCCFCF9384E090E00E944F2FC82F82E2BC
:1018B00090E00E944F2F982F8C2FCF910895AAE08F
:1018C000B0E0E5E6FCE00C94DB2E00E313E08EE1F3
:1018D000C82E83E0D82E9FE5E92E92E0F92E27E06E
:1018E000922E3DE1A32E33E0B32E88248394D601BB
:1018F0000D931D936D014AE050E0B701CE010196B2
:101900000E943F2FF8013896DF01892D1D928A959C
:10191000E9F789819A81D80111969C938E938F81E2
:1019200012968C9312978D8113968C9313978885BA
:1019300014968C931497898515968C9315978B81A3
:101940009C8117969C938E93169718961C921897C5
:101950008A8587FF3CC01E961C921E921D9780FFB1
:1019600003C0D80118968C9281FF04C0F8019085BD
:101970009260908782FF07C0D80118969C911897B3
:10198000946018969C9383FF04C0F801908598603A
:10199000908784FF07C0D80118969C911897906192
:1019A00018969C9385FF04C0F8018085806280872B
:1019B000015F1F4FFAE0EF0EF11C8FEAE81682E09C
:1019C000F80609F094CF2A96ECE00C94F72EF80173
:1019D000B686A586C4CFAAE0B0E0E1EFFCE00C94A7
:1019E000DF2EE5EFF2E088E2DF011D928A95E9F74C
:1019F000E2E1F4E08CE1DF011D928A95E9F785EFE1
:101A0000C82E82E0D82E7F0107E312E0F701D182D1
:101A1000C0824AE050E0B801CE0101960E943F2FFB
:101A200088E0FE013196D60101900D928A95E1F78A
:101A300089859A85D70113969C938E931297BAE065
:101A4000CB0ED11CE7E0EE0EF11C065F1F4F0F35E9
:101A5000F2E01F07D9F62A96E8E00C94FB2EA4E0EA
:101A6000B0E0E5E3FDE00C94E32E40914602509196
:101A7000470260914802709149022FB7F894809113
:101A80005B0490915C04A0915D04B0915E042FBF53
:101A9000841B950BA60BB70B11E084369105A105AD
:101AA000B10590F10E94E809882399F10E941A0576
:101AB0006E5F7F4F8F4F9F4F69837A838B839C83A9
:101AC0008091120190911301835C9D4F409111010F
:101AD00050E04530510510F044E050E0BE016F5F2A
:101AE0007F4F0E942F2F82E090E00E945F2E182FE0
:101AF000882351F00E941A056093460270934702B2
:101B00008093480290934902812F2496E4E00C943C
:101B1000FF2E0E941A0500914B0210914C02209159
:101B20004D0230914E02600F711F821F931FC0CF74
:101B3000EF92FF921F93CF93DF9300D000D00F92CC
:101B4000CDB7DEB77B0190E080E00E945F2E182FBA
:101B5000882309F487C04091040150E041155105E4
:101B600011F041E050E06091050170910601635C65
:101B70007D4FCE0105960E942F2F40913902509142
:101B80003A0260913B0270913C022FB7F894809129
:101B90005B0490915C04A0915D04B0915E042FBF42
:101BA000841B950BA60BB70B84369105A105B105D7
:101BB00040F48EE392E00E9432039D81891709F47C
:101BC00051C081E090E00E945F2E81111AC010E0A8
:101BD0008091350290913602A0913702B09138027F
:101BE000F70180839183A283B383812F0F900F909D
:101BF0000F900F900F90DF91CF911F91FF90EF907A
:101C0000089540910C0150E04530510510F044E03A
:101C100050E060910D0170910E01635C7D4FCE012B
:101C200001960E942F2F8EE392E00E9432039D8145
:101C30008913CDCF0E941A056093390270933A023E
:101C400080933B0290933C0289819A81AB81BC8155
:101C50008093350290933602A0933702B0933802F6
:101C600011E0B6CF80913E0290913F02A0914002D8
:101C7000B091410289839A83AB83BC831111E4CF75
:101C8000A7CFACE0B0E0E7E4FEE00C94DA2E8E01E2
:101C90000F5F1F4F88E0D8011D928A95E9F783E610
:101CA000C82E81E0D82EF12CE12CAA24A394B12CCB
:101CB0002EE6822E21E0922EF60181916F018F3F58
:101CC00009F442C0F894E82FE295EF70F0E021A10A
:101CD0008F70A50102C0440F551F8A95E2F7CA0113
:101CE000922F982B91A392A18095892382A3789417
:101CF00000C0E7E6F1E0712C31E021912F3F09F4BB
:101D00006BC0A22FA295AF70B0E090968C9190E03E
:101D10002F7002C0959587952A95E2F780FD5CC0EB
:101D2000832F782A330F8E169F0639F7F6013197E5
:101D300080818F3F11F00E94750650EA5A95F1F7A5
:101D4000F801EE0DFF1D70828FEFE81AF80AA4E08B
:101D5000EA16F10409F0B0CF48E050E0B8018FE492
:101D600092E00E94222F009741F028E0F801AFE4B2
:101D7000B2E001900D922A95E1F700915802892B6B
:101D800069F181E080932C020E94260590932B023A
:101D900080932A0280912A0290912B020E940B05C7
:101DA0000A9700F110E005591D4F44E050E06FE440
:101DB00072E0C8010E94222FB12C892B51F084E0DF
:101DC000EFE4F2E0D80101900D928A95E1F7BB248F
:101DD000B39410922C0207C080E0A3CF80912C0214
:101DE0008111D8CFB12C0E94E809F82EE091580259
:101DF000882309F472C019861A861B861C860E2F4A
:101E000010E005591D4F80914A028A3088F548E953
:101E10005DE0BE01675F7F4FC8010E94B50988235E
:101E200009F44AC04FE25DE0BE01675F7F4FC80121
:101E30000E94B509882309F43FC010924A0280919C
:101E4000570290E044E050E0BE01675F7F4F855944
:101E50009D4F0E94222F21E020933302892BF1F421
:101E6000F12C1F2D812F8B292C96EDE00C94F62E52
:101E700080912D0290912E020E940B05843F91408B
:101E800030F680913302882359F3FE01399684E0BD
:101E9000DF011D928A95E9F710923302E091570213
:101EA000F0E0E559FD4F89859A85AB85BC85808337
:101EB0009183A283B383D5CF80914A028F3F31F0C3
:101EC0008F5F80934A028A3008F4B9CF0E942605BA
:101ED00090932E0280932D02D4CFF0E0E559FD4F70
:101EE00084E0AEE3B2E001900D928A95E1F78EE3D3
:101EF00092E00E94320380933D02C0904202D09053
:101F00004302E0904402F090450280912F029091AC
:101F10003002A0913102B0913202C816D906EA0609
:101F2000FB0611F410E09ECFC0922F02D092300237
:101F3000E0923102F09232020E94E809182F8111DA
:101F4000F1CF0E941A05C61AD70AE80AF90AC09208
:101F50004B02D0924C02E0924D02F0924E0282CFA0
:101F6000CF938091510490915004892B80938001EC
:101F700080912802882339F10E94260520912602AB
:101F800030912702821B930B8838934110F00E94F6
:101F900050088091800190912802892B80938001C4
:101FA00080912701882309F447C080915F0487FF4F
:101FB00043C08EE1E2E8F1E090E0815008F03EC0DD
:101FC00091110E945008C0914604C09580918001F3
:101FD000C82380914704C82BC093800140E250E0A1
:101FE00066E072E080E891E00E94222F892B11F1D7
:101FF00080E2E0E8F1E0A6E0B2E001900D928A957F
:10200000E1F7E0915604F0915704309799F08091F0
:102010002701882349F080915F0487FF05C0C093A2
:10202000810186E0809380010280F381E02D80E8C9
:1020300091E00995CF91089586E0BCCF21912223AC
:1020400009F4BBCF9F5FB9CFCF93DF93EC01EA8553
:10205000FB85309719F06C857D8509958B810E94F1
:102060005B088C810E9462080E94B00F86E0FE012E
:1020700011928A95E9F7DF91CF910895CF93DF937D
:10208000EC018D8181FD18C082608D8380915004A8
:102090009B81892B80935004809151049C81892BD2
:1020A000809351040E94B00FE885F985309721F0A4
:1020B0006C857D85CE0109951092530410925204CF
:1020C0008D8180FD03C0CE010E942410DF91CF914D
:1020D000089590E080E00E947D0590E080E00E94FD
:1020E0006705109250040E94B00F089580939304E6
:1020F0000E946910089580919304982F96709630ED
:1021000021F488600E9476100895877FFBCF21E03C
:1021100030E001C0220F8A95EAF720958091930460
:1021200082230E947610089590910502809589235C
:1021300080930502282F277091F4282F082E000C79
:10214000330B9217130659F09091600492FF07C069
:102150008595859585950E9487100E946908089548
:10216000CF93C0916004C2FB992790F9981791F022
:1021700080FBC2F9C093600460915F0484E090E04A
:102180000E945D2F6C2F82E290E00E945D2F82E022
:102190000E949410CF91089521E030E001C0220FF9
:1021A0008A95EAF780919304822B0E947610089515
:1021B0009091600492FF10C098E0899F90011124D3
:1021C000622B609305020E94CC100E94260590931A
:1021D00004028093030208950E94CC100895809316
:1021E00029020E94691008951092510480912701DC
:1021F000E2E8F1E0882361F080915F0487FF08C086
:102200008EE1DF011D928A95E9F70E946910089519
:1022100086E0F7CFAAE2B0E0E0E1F1E10C94E42E31
:102220008AE894E02091F100DC012D93CD01B4E027
:1022300082399B07B9F780918B04833009F472C00F
:10224000B8F4813009F449C0823009F4B3C08091F8
:10225000E80083FF96C280918A0490918B049A30A3
:1022600008F08FC2E92FF0E0E556F04D0C940C2FEA
:102270008A3009F48EC08B3009F471C0893039F787
:1022800080918A04813219F780918E0490918F0495
:10229000009711F00297D9F68091E800877F80932C
:1022A000E8008091E80082FF38C09091F3008091AF
:1022B000F200029731F48091F100813011F0863004
:1022C00021F48091F100809366048091E8008B777F
:1022D0008093E8000E94EB03BACF80918A04813A90
:1022E00009F0B5CF8091E800877F8093E800809166
:1022F0008E0490918F04892B61F460E287E694E06C
:1023000070E00E9497048091E8008B778093E8004A
:102310009ECF60E090E080E0F3CF80919204811145
:10232000C0CF95CF80918A04813A09F090CF8091F7
:102330008E0490918F04892B09F089CF8091E80059
:10234000877F8093E8008091E80080FFFCCF809138
:1023500027018093F1008091E8008E77B9CF8091BA
:102360008A04813209F073CF80918E0490918F049A
:10237000892B09F06CCF8091E800877F8093E8007B
:102380000E94EB0380918C04809327010E94F4103B
:102390005ECF80918A04813209F059CF8091E800A4
:1023A000877F8093E8000E94EB0380918D048093E7
:1023B00065044DCF80918A04813A09F048CF80911D
:1023C000E800877F8093E8008091E80080FFFCCFE1
:1023D00080916504BECF803899F0823809F0D1C170
:1023E00080918E048F70873008F0CBC18093E90014
:1023F0008091EB0085FB882780F91092E90006C0E8
:102400008091870490918804911182609091E800F6
:10241000977F9093E8008093F1001092F1008091F3
:10242000E8008E77AAC1882309F498C1823009F0A8
:10243000A8C180918C0481119BC180918E048F7002
:102440002FEF280F263008F09CC18093E9002091DF
:10245000EB0020FF8DC1933031F48091EB0080625E
:102460008093EB0085C19091EB0090619093EB001D
:1024700021E030E001C0220F8A95EAF72093EA00BC
:102480001092EA008091EB008860EACF811179C157
:1024900010918C041F778091E3008078812B8093CA
:1024A000E3008091E800877F8093E8000E94EB03BF
:1024B0008091E80080FFFCCF8091E30080688093EA
:1024C000E30082E0111183E0809392045AC18058A6
:1024D000823008F056C120918C0430918D042C3D3F
:1024E000E3E03E07A1F583E08A838AE289834FB760
:1024F000F894DE01139620E03EE051E2E32FF0E095
:1025000050935700E49120FF03C0E295EF703F5FC6
:10251000EF708E2F90E0EA30C0F0C7968D939D93B8
:102520002F5F243159F74FBF8091E800877F809358
:10253000E8006AE270E0CE0101960E949704809163
:10254000E8008B778093E8001CC1C096E7CF8091AC
:102550008E0490918F04432F55274330510509F481
:102560004AC078F54130510509F485C08BE590E00B
:10257000E3ECF4E04230510509F003C12091E8009A
:10258000277F2093E80020919004309191048217D6
:10259000930708F49C0140E02115310509F070C053
:1025A00041116EC08091E80082FDC9CF80919204F4
:1025B000882329F2853019F28091E80083FFF2CF59
:1025C000BECF4132510509F447C04232510509F0EE
:1025D000D8C08330910508F0D4C0FC01EE0FFF1F76
:1025E000EF58FE4F0190F081E02D82599E4FDC01A3
:1025F0008C9190E01DC0332721303105E9F0211581
:10260000310579F022303105F9F02330310509F038
:10261000B8C0E0E3F5E0E4918E2F90E0E0E3F5E070
:1026200007C0E2E7F5E0E4918E2F90E0E2E7F5E005
:10263000009709F4A6C0A2CFEEE5F5E0E4918E2F55
:1026400090E0EEE5F5E0F4CFEEE4F5E0E4918E2FD6
:1026500090E0EEE4F5E0ECCF8330910508F091C016
:10266000880F991FFC01E958FE4F0190F081E02D81
:1026700089E090E083CF82E190E0EEE1F5E07ECF6B
:1026800080919204882309F45ACF853009F457CFFA
:102690008091E80083FD53CF8091E80082FD82CFD6
:1026A0008091E80080FF78CF9091F3008091F20054
:1026B0002115310519F08830910550F041E0089757
:1026C00009F040E08091E8008E778093E80064CFC5
:1026D00044914093F1003196215031090196E8CFA1
:1026E000803809F04EC08091E800877F8093E80031
:1026F000809189048093F10092CE811142C01091A3
:102700008C041230F0F58091E800877F8093E80018
:10271000109389040E94EB03112311F084E005C09B
:102720008091E30087FDFACF81E08093920442E03C
:1027300061EC81E00E940A0442E261EC84E00E94C4
:102740000A0442E261EC82E00E940A0442E260EC88
:1027500083E00E940A048091920413C080918C044B
:10276000813079F481E0933009F080E0809388042F
:102770001092E9008091E800877F8093E8000E9432
:10278000EB038091E80083FF0AC08091E800877F17
:102790008093E8008091EB0080628093EB00AA9622
:1027A000E3E00C94002F0E94F4102FEF84E39CE0F0
:1027B000215080409040E1F700C0000088E19AE09D
:1027C0000FB6F894A895809360000FBE90936000B8
:1027D000FFCF882321F00E945B080E94B00F08956C
:1027E000882339F090915004982B909350040E94C4
:1027F000B00F0895882321F00E9462080E94B00F54
:102800000895882339F090915104982B90935104A6
:102810000E94B00F0895882339F19CEF980F913AE8
:1028200028F40E9470080E94B00F089590E2980F5B
:10283000983050F4877091E001C0990F8A95EAF7BB
:10284000892F0E946208EFCF9BE5980F933028F400
:1028500090E080E00E947D050895885A873120F439
:1028600090E080E00E9467050895FF920F931F9308
:10287000CF93DF93F82E00914B0410914C04011577
:10288000110509F449C010924A04109249041092AB
:10289000460410924704D8011696CD91DC919E0112
:1028A0003A9521153F4108F4D07ED1E0C11101C015
:1028B000D0E0D8011996ED91FC911A97309731F03C
:1028C0001B966D917C9180E00995D823DD2339F02A
:1028D0008CEF8C0F813A30F58C2F0E947008FF200E
:1028E00099F0E0914B04F0914C04808584FD0CC07C
:1028F00080914804882341F0808191819C0121507E
:102900003109203B3D45A0F00E94B00F10924C04CD
:1029100010924B0410924804C801CDB7DEB7E5E031
:102920000C94FE2E0E94B00F8C2F0E940B14D7CF58
:102930000E949305E9CFCF93C82F8823C9F18CEF6C
:102940008C0F813AB8F580912701882301F180919D
:102950005F0487FF1CC0EC2FE695E695E695F0E056
:10296000E058FE4F828190E04C2F477021E030E02C
:1029700002C0220F331F4A95E2F782239323892B4B
:1029800081F08C2F0E9470080E94B00F0AC0E2E80C
:10299000F1E088E891E02191C21799F38E179F0723
:1029A000D1F76C2F80E891E00E9432050E94B00FB1
:1029B000CF91089580E28C0F883068F4C77021E0D1
:1029C00030E001C0220FCA95EAF780915104822BB2
:1029D00080935104EBCFEBE5EC0FE33040F4F0E0F3
:1029E000E05DFE4F808190E00E947D05E1CFC85AF6
:1029F000C731F0F6EC2FF0E0EE0FFF1FED5CFE4F5D
:102A0000808191810E946705D3CF1F93CF93DF937D
:102A1000182FD0E0C0E0893311F4C0E5D0E0812F59
:102A20000E949B14209739F4812F0E940B14DF9190
:102A3000CF911F9108958FE99FE00197F1F700C0B2
:102A400000002197EFCFB0E0A0E0E9E2F5E10C94BF
:102A5000DD2EEC018AE0A82E2881222309F48FC004
:102A60002130C9F599818A81913021F422960E9402
:102A7000051505C0923029F422960E949B142196D8
:102A8000EBCF933021F422960E940B14F8CF9430B0
:102A900011F02196F4CF229630E020E0AE014F5F96
:102AA0005F4F8053990B8A30910550F021503109C6
:102AB00030F38FE99FE00197F1F700C00000F6CFF7
:102AC000A29EB001A39E700D11249C01260F371FFA
:102AD0008981EA01E3CFE22FF0E0EA55FA4FB490A2
:102AE000822F86958695869590E0FC01EA56FA4FEE
:102AF000E4902770F12C022E02C0F594E7940A941A
:102B0000E2F731E0E322FF24FC01EA57FA4FC490D8
:102B1000D12C022E02C0D594C7940A94E2F731E07A
:102B2000C322DD24FC01EA58FA4F049110E002C0F0
:102B3000159507952A95E2F701701127E114F10424
:102B400019F081EE0E949B14C114D10419F086EE95
:102B50000E949B148B2D0E940515C114D10419F0FD
:102B600086EE0E940B14E114F10419F081EE0E942C
:102B70000B140115110509F482CF8CE278CFCDB783
:102B8000DEB7EAE00C94F92EB0E0A0E0EAECF5E163
:102B90000C94DF2E6B01C42FD22FFC01828188237D
:102BA000A9F040934F040E94260590934E04809311
:102BB0004D04C77081E001C0880FCA95EAF70E94F2
:102BC0000114CDB7DEB7E8E00C94FB2E10914F0452
:102BD000141337C080914D0490914E040E940B0550
:102BE0007C01C6010E942A0BE816F90650F5C0E2E6
:102BF000CD0F1D17C1F080E2810F883048F41770A7
:102C000081E0012E01C0880F0A94EAF70E94FA13AE
:102C1000C83048F481E09D2F977001C0880F9A95C5
:102C2000EAF70E940114802F0E940515C83048F66B
:102C3000D77081E001C0880FDA95EAF70E94FA1395
:102C4000C0CFC77081E001C0880FCA95EAF7F6CF00
:102C5000CF93DF93EC010E9410099E01205E3109A1
:102C60002830310510F0209741F40E9401148C2F78
:102C70000E949B14DF91CF9108950E94F013F7CF2B
:102C800068EE7EEF90E080E00E947B2F60E082E0C3
:102C900090E00E945D2F60E083E090E00E945D2F55
:102CA0001092290260E084E090E00E945D2F64E0D1
:102CB00082E290E00E945D2F60E085E090E00E945B
:102CC0005D2F60E086E090E00E945D2F6FEF87E06F
:102CD00090E00E945D2F40E050E0BA0188E090E073
:102CE0000E946F2F60E08DE090E00E945D2F40E039
:102CF00050E0BA0188E190E00E946F2F60E087E128
:102D000090E00E945D2F40E050E0BA018CE190E03D
:102D10000E946F2F70E060E080E290E00E947B2FC5
:102D200040E050E0BA0188E190E00E946F2F80E01F
:102D30000E94520A0E94060B40E050E0BA018FE068
:102D400090E00E946F2F40E050E0BA0183E190E0F4
:102D50000E946F2F0895A7E0B0E0E1EBF6E10C943C
:102D6000D52E7C01DC0113964D915C911497119640
:102D70006C9111978C910E9404068111ECC061E066
:102D8000C7010E94080C8C01F70182818823E1F0C1
:102D900080915204909153040097B1F008171907DD
:102DA00099F0FEE08F9FC0011124FC01E657FD4F12
:102DB0002081246020838B579D4FDC010D931C9351
:102DC0000E943E1010925004F7018281882309F47A
:102DD0008EC6C80182519F45409708F07CC68FEF90
:102DE00093E00E944F2F8111A6C06EEED62ED00E1A
:102DF0000FEA12E0D11036C019821A821B821C829F
:102E000099249A9468012FEFC21AD20AC8010E942D
:102E10004F2F89831A82882309F48DC0813009F0ED
:102E20007FC0580132E0A30EB11CC6010E944F2F93
:102E3000C82E8A83882309F47EC0C5010E944F2FC3
:102E4000D82E8FEF8C0D8330D8F4580143E0A40EB8
:102E5000B11CDB82DD2021F0CE0101960E942315FA
:102E60008501D0CF0115F4E01F0709F464C0C80143
:102E70000E944F2F811101C0DA940F5F1F4FBACF0C
:102E80008BEF8C0D833030F5C8010396DB825C013B
:102E9000DD2031F3580154E0A50EB11C0E944F2FE4
:102EA0008C838823E9F28B819C818130AFEF9A0774
:102EB00010F0982F8827B6E0CB1631F0E7E0CE1659
:102EC00031F00E94F524CCCF0E94CF24C9CF0E94BC
:102ED0004924C6CFF4E0CF12C3CF580124E0A20E9C
:102EE000B11CC80103960E944F2FDD2021F18823D9
:102EF00011F18150990B989E9001999E300D1124EB
:102F00004D2D4150550BCA01820F931F019708F4B4
:102F1000A7CFAFE9BFE01197F1F700C00000F6CFEF
:102F2000CE0101960E94231556019ACF81E00E949E
:102F3000CC100E947B1080910502877061F0D70150
:102F400012968C91882339F08091600482FF03C02F
:102F500082E00E9494102796E2E10C94F12E81E029
:102F60000E948710E6CF82E0FBCF823009F0FDC5DA
:102F700080917F0290918002892B09F4F6C52EE0A2
:102F80002C9DC0012D9D900D1124FC01E657FD4F95
:102F900020812E7F20838B579D4F0E943E10E5C5D8
:102FA00081E080930001C7CF80910001882309F45C
:102FB000C9C4480120EE821A9108409028028091ED
:102FC000A301482A80915104482A38E083169104CD
:102FD00008F086C098012770332781E090E001C097
:102FE000880F2A95EAF7552009F477C0482AD701B7
:102FF0008D919C910E94A50821E030E0F90102C06A
:10300000EE0FFF1F8A95E2F7FF83EE8320904B04BB
:1030100030904C046090A0017090A1011D822D8120
:10302000E22FF0E0EE0FFF1FE25EFC4FC080D18088
:10303000C114D10409F4EAC4411005C0D6011296A6
:103040008C91811189C0F601838190E02E813F81AE
:1030500082239323892B09F47FC08085982F977052
:1030600009F487E038E08316910408F053C0552036
:1030700009F44CC086958170882309F46DC0D6018F
:10308000AD90BC900A151B0519F4552009F464C0D5
:10309000C214D30409F460C0D6011D96ED91FC91D1
:1030A000309721F08081882309F456C0642DC60131
:1030B0000E94E405882309F44FC00A151B0509F096
:1030C000B0C50115110509F4B1C55110B1C5A6145B
:1030D000B70409F041C0512CABC58095482287CF79
:1030E000552009F47CC41093A1010093A0010E9413
:1030F0001A056093420470934304809344049093B0
:10310000450410924A041092490471CF82FB88272B
:1031100080F9B2CF552001F18170AECF0E940B141F
:10312000A5C50497813A910558F46A2D80E891E08D
:103130000E943205552009F405C40E94B00FFBCE51
:103140000E94B00F8FE39CE90197F1F700C00000E7
:103150008A2D0E949B14EECF9D819F5F9D835FCF40
:10316000FC01208131810217130709F0E4C35110DB
:10317000E4C31092480480E00E943514E3C3902F0A
:10318000812F28C4F901858181FF54C4C9010E949F
:10319000241050C407E225EE45EE68ED7CE51EC51F
:1031A00006E221EE40EE63EF7CE518C507E225EE6E
:1031B00044EE64EF7CE512C506E221EE42EE65EFD7
:1031C0007CE50CC508E221E045EE69ED7CE506C52D
:1031D000053AFDE51F0709F444C4D0F401363DE586
:1031E000130709F43EC406314CE5140709F072C513
:1031F000809151048A7A91E009F490E09093A201C1
:1032000069E2811165E380E891E00E94320595CF83
:10321000C8018D5A9D45039730F723C480915F0400
:10322000806207303CE51307B9F180915F0480614B
:1032300008304CE5140780F180915F0480642CC055
:103240000D305CE5150709F4C0C090F480915F046F
:103250008E7F0B309CE51907F9F080915F048C603C
:103260000C30ACE51A07C0F080915F048D7F14C06C
:103270000F30BCE51B0709F4B8C008F4AAC0003140
:10328000FCE51F0709F4B5C080915F048F7B013115
:103290002CE5120709F00FC480935F040CC40F3FA4
:1032A0003CE5130709F4B3C0A8F50A3F5CE5150730
:1032B00009F479C0C0F404319CE5190709F4B5C0DC
:1032C00008F4A1C00531BCE51B0709F0F4C38091E7
:1032D0005F0482FB992790F921E0922790FB82F905
:1032E00090FB83F9D9CF0C3FECE51E0709F475C0BC
:1032F00008F45DC00D3F2CE5120709F472C08091FF
:10330000600483600E3F3CE5130709F0D4C380934B
:103310006004D1C301364DE5140709F491C090F45F
:1033200001308DE5180709F489C008F474C060E025
:103330000230ADE51A0709F0BEC38EE090E00E94AE
:103340005D2FB9C30D3ABDE51B07E9F060F490911C
:103350005F04892F8E7F90FF8160053AFDE51F078E
:1033600009F49ACFA8C30E3A2DE5120751F10F3A8E
:103370003DE5130709F09FC390916004892F877F73
:1033800093FF8860C4CF809160048860C0CF809133
:103390005F04826081CF80915F0484607DCF8091E3
:1033A0005F04886079CF809160048160B0CF8091A4
:1033B00060048260ACCF0E94F41080915F0480684A
:1033C0006BCF80916004877FA2CF80915F048B7F59
:1033D00063CF80915F04877F5FCF809160048E7F91
:1033E00096CF809160048D7F92CF80915F048F7E15
:1033F00053CF80915F048F7D4FCF0E94F410809156
:103400005F048F7749CF80915F04837F45CF8091A0
:1034100060048C7F7CCF80916004982F9095917090
:103420008E7F892B90FB81F972CF0E94F4109091CE
:103430005F04892F97FB87F980582ECF61E07DCFFD
:1034400090915F04892F8F7E94FF806125CF85E363
:10345000E5C30E94F4105FEF84E39CE0515080408C
:103460009040E1F700C000000E94FA0480916004DF
:1034700082FB882780F991E089270E94B010F7012C
:10348000868197810097C1F10E94CF068C01F701D8
:10349000C280B580B2943FE0B3228091050287706C
:1034A000C1F0AC2CCC20B1F0812F807F803421F092
:1034B00080E2800F883068F08091600482FF09C04C
:1034C00082E00E949410809105028770AA24A39440
:1034D0008111A12C912E92942FE09222FBE0F915FC
:1034E00008F484C0E92DF0E0EB55F04D0C940C2F5E
:1034F00081E0C3CF80E0C1CF828100811181882328
:1035000069F0C8010E94920BD82E682FC8010E9452
:10351000D908B8018D2D0E94750BB6CFC8010E9445
:10352000A508D82EF6CF212F2F70D22E107F19F09C
:10353000D29490EFD922CC20B9F0DD2069F080E25E
:10354000800F883010F0011109C080915104D82AF1
:10355000D09251040E94B00F802F46C08091500439
:10356000D82AD0925004F6CF802F0E940B14DD2071
:10357000E9F180E2800F883010F0011104C08D2D38
:103580000E94620803C08D2D0E945B080E94B00F4C
:103590002DC0312F3F70D32E107F103219F0D294EE
:1035A00080EFD822002381F0013009F495C0CC20AF
:1035B00009F49EC0BB2009F46BC0F701858180FF30
:1035C000CBCF8F70858364C08091600482FD39C049
:1035D000CC2089F1DD2039F080915104D82AD09295
:1035E00051040E94B00F80E00E949B14292D2850A6
:1035F000330B2430310510F40E940B0AAA20B1F0DD
:103600008091050280FD12C0D70112961C9285950B
:10361000859585950E94CC10C7010E94AB168091BC
:1036200005028595859585950E94871060E0C70104
:103630000E94080C90CC80E00E940B14DD20B1F2B7
:103640009ECFCC2049F1B11004C0809128028D2971
:1036500020C041E0B41210C082FFC8CF8091280280
:10366000D82AD81619F20E94260590932702809333
:103670002602D0922802BACF55E0B512E6CF0E94BA
:1036800050089091A3018D2D892B89138093A3015C
:103690008D2D0E940114AACFB11003C00E945008C2
:1036A00012C081E0B81213C0809151048D2109F439
:1036B0009DCF0E9450089091A3018D2D8095892364
:1036C00089138093A3018D2D0E94FA138FCF95E06B
:1036D000B91609F48BCFE2CFCC2029F0A5E0AB15C9
:1036E00008F484CFD5CFB4E0BB1508F47FCFEBCF7F
:1036F000BB2049F3093349F4FFEF27EE33E0F150E3
:1037000020403040E1F700C00000802F0E940B14E1
:103710006DCF812F86958695837061F0813009F099
:1037200065CFC8019370C11002C090E080E00E9494
:1037300067055CCFC8019370C11002C090E080E0C3
:103740000E947D0553CF812F837089F5C1104ECF24
:10375000402F429546954770440F440F802F8F703D
:10376000042E01C0880F0A94EAF7202F207104FF6D
:1037700007C02FE030E001C0220F4A95EAF72095FC
:10378000169516951370123069F050F43091290295
:10379000113029F0822B83230E94EF1027CF832B37
:1037A000822BFACF282B809129028227F5CF86958C
:1037B000CC2011F0812F8170882309F417CF402F7E
:1037C000429546954770440F440F802F8F70042E0A
:1037D00001C0880F0A94EAF7202F207104FF07C068
:1037E0002FE030E001C0220F4A95EAF720951695A8
:1037F00016951370123069F050F430919304113023
:1038000029F0822B83230E947610F0CE832B822B0B
:10381000FACF282B809193048227F5CF1F70CC20FC
:1038200029F0812F0E94CC10802F33CF802F0E944F
:10383000FA13812F0E948710D9CE023F89F160F4DC
:10384000003FB9F0013F81F0CC2009F464C0B11011
:1038500083CE812F8F7128C0033F49F1043FA1F728
:103860008091600482FD2FC0812F8F71CC2011F3D5
:103870001BC0CC2081F044E04B1508F4B7CE1F717B
:1038800081E090E0012E01C0880F0A94EAF7909140
:1038900093048927B8CF55E05B1508F4A7CEEFCF86
:1038A000812F8F71C110C6CF0E94CC109FCE80E0B7
:1038B000CC2009F4A8CF1F7181E0012E01C0880F30
:1038C0000A94EAF7A0CFCC20C9F080910502877056
:1038D000843041F40E946908812F8F710E94871003
:1038E000A12C84CE84E08B15D8F31F71812F0E9408
:1038F000CC1063E0812F0E94D810F2CF94E09B158A
:1039000030F40E94690864E0812F8F71F4CF81E068
:103910000E949410E5CFBB2059F0093309F0F5CE91
:10392000AFEFB7EEE3E0A150B040E040E1F7EBCEFF
:10393000812F8F717FCF552029F0DC0118968C9153
:1039400085FF19CCC80197558F3F910511F008F0FC
:103950002BC15801BB24BEE00B9FF00111249F0135
:103960002B573D4F6901D70112968C91E657FD4FB9
:10397000908180FB90F99083882309F403CC0E9406
:1039800026059093650280936402F60182818F5F21
:1039900082838091500490915104892B838380917C
:1039A000280284830680F781E02D309731F0D6011C
:1039B0001C966D917C91C60109958EE08A9DF0015F
:1039C0008B9DF00D1124EB57FD4F858181FFD7CBE7
:1039D00090E080E090935204809353042BC0809138
:1039E000A0019091A1010817190781F41092A1017B
:1039F0001092A001109242041092430410924404C9
:103A00001092450410924A041092490480914B048C
:103A100090914C04009709F495CFA8E08A16910480
:103A200008F09ECB642D0E94E405811103C081E063
:103A30000E943514D70112968C91882309F4E4C0B2
:103A400010924F040330BDE51B0708F0C1CB0A3FBD
:103A5000ECE51E0730F4C80182509C45449708F0FD
:103A6000C2CB0E94510C9093600480935F0402319A
:103A70004CE5140709F4C1CC08F011CC09308CE5F1
:103A8000180709F498CC08F0DBCB0530ACE51A0731
:103A900009F485CC08F0C2CB0330ECE51E0709F42D
:103AA00076CC08F078CC80915F04816002302CE500
:103AB000120709F4F1CB60915F041091600484E077
:103AC00090E00E945D2F612F82E290E00E945D2FC6
:103AD0000E94F41030CA0031FFE51F0709F426CA1E
:103AE00001312FE5120709F040C082E020CA003101
:103AF0003FE5130709F433CA01314FE5140709F410
:103B000032CA6801E7E5DE1AFFEFCF16D10409F0EB
:103B100060F56BE772E08C2D0E94160B892B29F55E
:103B20008EE08C9DF0018D9DF00D1124EB57FD4F23
:103B30008281813009F019CA80917B0290917C02C8
:103B4000892B99F080917D0290917E02892B69F0FA
:103B500080917F02909180022091810230918202B7
:103B6000822B932B892B09F40ACAD70112965C90F9
:103B7000552009F419CA0F35BDE51B0709F410CA11
:103B80000036EDE51E0751F00E35FDE51F0709F083
:103B90000BCA80910001882309F402CA1092000127
:103BA00080E00E943514C7C9033F5CE5150709F49E
:103BB000F7CAC0F4083D9CE5190709F4EBCA093DB2
:103BC000ACE51A0709F4FECA073DBCE51B0709F07E
:103BD00031CF06E221EE41EE67ED7CE5C7010E94A0
:103BE000C415A9C9053FECE51E0709F4E5CA08F4A8
:103BF000DDCA063F2CE5120709F01CCF07E225EECF
:103C000046EE66EF7CE5EACF06313CE5130709F0A6
:103C100036CC8091A20181111ACC89E20E947008F1
:103C20008CCAA114B10409F052CA512CB12CA12C98
:103C300080E00E943514D0924C04C0924B0481E085
:103C400080934804F60185818093460451100EC08C
:103C5000AB2861F0F601808191819C0124503109EB
:103C6000213A310508F05ACA0E947008D60116960A
:103C7000AD90BC90C5019A9581159F4110F4E0EE7E
:103C8000BE2277247394C5010197803B9D4508F0BF
:103C9000712CD6011996ED91FC911A97309731F05D
:103CA0001B966D917C9181E009957822772079F0BF
:103CB000F601868197810E94100980934704C5010F
:103CC000F8E08F16910408F02CCA0E9493050E9418
:103CD000B00F30CA0A354DE5140709F409CC68F471
:103CE00001158CE5180709F4B4CB0E3D1C4509F00D
:103CF000C6CB0E9440160E94D3130C35ADE51A07BF
:103D000009F4B4CB08F4F6CB073A1D45A1F3B7CBC1
:103D1000B0E0A0E0EEE8FEE10C94DF2E8091BE0161
:103D2000807F31F48091BB01C0910202811107C0F4
:103D3000CDB7DEB7E8E00C94FB2E2196C7708091DA
:103D4000C1018C17A9F3F090B901E090BA01C090BD
:103D5000BC01D090BD01A6016E2D8F2D0E940406DE
:103D6000D0E08111EACF8E0183E0000F111F8A9508
:103D7000E1F7F801EE53FE4F81818E11DECF808195
:103D80008F11DBCF82818111D8CFE380F480EC18D2
:103D9000FD0860E089EB91E00E94080C0E942A0B6C
:103DA000E816F90650F68091BE018F70806180930D
:103DB000BE01F801E953FE4F80818F7080618083DE
:103DC00089EB91E00E94AB160E949B08B1CFA5E160
:103DD000B0E0EDEEFEE10C94D72E8C0185E0F80109
:103DE000DE01519601900D928A95E1F7D801129665
:103DF000EC9049EBA42E41E0B42E8090BC01909051
:103E0000BD01A4016091BA018091B9010E9404062C
:103E1000682E8111ACC1F801C380D480F090BB0141
:103E2000C601881999094C01FF2009F452C140804C
:103E3000518060E0C5010E94080C0E942A0B70901E
:103E4000BE018816990608F0F0C04091BC0150915F
:103E5000BD01B090B901A090BA01872D807F6A2D75
:103E600009F08FC08B2D0E940406FE2C811127C003
:103E7000D80111968C9111978A1121C08C918B11C8
:103E80001EC02091BF013091C00116968D919C916A
:103E900028173907A1F4E11012C0872D8F708061B7
:103EA0008093BE0189EB91E00E94AB168091BE0128
:103EB000F80185838F2D6596E0E10C94F32EA60121
:103EC000652D842D0E940406811123C081E08E257A
:103ED000F82FF170DF2E80FF3FC080910202209109
:103EE000C101821318C0498A5A8A89899A890E9415
:103EF000C10B292F22952F70223010F1243038F574
:103F00009F7011F1D80115969C91907FE9F4F62CE1
:103F1000D1CF80E0DDCF90E0FC0133E0EE0FFF1F5A
:103F20003A95E1F7EE53FE4F3181531206C03081CE
:103F3000431203C03281E3120FC001968770D1CFC4
:103F40009F7011F0882319F3805E883000F3C80158
:103F50000E94AB166D2CDBCFEE2009F4ABCF809125
:103F6000BE0181608093BE0189EB91E00E94AB1697
:103F700088E0E9EBF1E0DF011D928A95E9F7F12C89
:103F800099CF8B2D0E94040681111FC0F8018181F9
:103F90008A111BC080818B1118C02091BF01309104
:103FA000C001868197812817390779F4E1100DC087
:103FB0007582C8010E94AB1688E0F801A9EBB1E058
:103FC00001900D928A95E1F775CFC8010E94CE0B42
:103FD000882339F1EE2029F18091BE018032A0F0D2
:103FE0002091B9013091BA013A8729871B86DD8675
:103FF000CC868E878091BF019091C001988B8F876E
:10400000CE0109960E94AB1688E0F801A9EBB1E059
:1040100001900D928A95E1F70E94881EFF24F39487
:1040200049CFC8010E94AB16F9CF872D807F39F4A4
:1040300089EB91E00E94AB1688E0D5019DCF90906E
:10404000B9018090BA014091BC015091BD01682D29
:10405000892D0E94040681111CC0F80181818811FC
:1040600018C08081891115C02091BF013091C00115
:10407000868197812817390761F4E1100AC075829B
:10408000C8010E94AB1688E0D5011D928A95E9F718
:1040900011CFC8010E94CE0B882319F2EE2009F43B
:1040A000C0CF8091BE01803208F4AECF2091B9011B
:1040B0003091BA013A8329831B82DD82CC828E83C0
:1040C0008091BF019091C00198878F83CE010196A6
:1040D00099CF60E089EB91E00E94080C0E942A0BC6
:1040E0008816990680F6FE2CEE2009F49ACFE0900F
:1040F000B901D090BA014091BC015091BD016D2D24
:104100008E2D0E940406811124C0F80181818D1139
:1041100020C080818E111DC02091BF013091C0014F
:104120008681978128173907A1F49091BE0190FDEF
:1041300043CF907F09F440CF8091BE018583903FAB
:1041400009F437CF982F907F905F8F70892B8583EC
:1041500030CFC8010E94CE0B811156CF8091BE0195
:1041600081608093BE01C8010E94AB16A3CEEE20F1
:1041700009F457CFC8010E94CE0BF82E882309F40A
:1041800050CF88E0F801A9EBB1E001900D928A953B
:10419000E1F78091B9019091BA010E94C10B0E9490
:1041A000881E88CEA0E1B0E0E8EDF0E20C94E52EA8
:1041B00029873A874B875C876D877E878F87988BA7
:1041C000CE0109960E94E71E81112FC088E0FE01F2
:1041D0003996DE01119601900D928A95E1F74C8592
:1041E0005D856A8589850E94040681111EC0A091A3
:1041F000C101B0E0CD01019687709927209102029C
:1042000028171906E1F093E0AA0FBB1F9A95E1F772
:10421000AE53BE4F98E0FE01319601900D929A95F3
:10422000E1F78093C1010E949B0880910202909166
:10423000C101891312C06096E2E00C94012F0E9424
:10424000F4101092C1011092020288E0E9EBF1E053
:10425000DF011D928A95E9F7E8CFB8E08B9FC00196
:1042600011248E539E4F0E94E71E882321F38091D4
:10427000020290E001968770992780930202D5CFC1
:10428000EF92FF920F931F93CF93DF938091B1032F
:10429000882361F0C091B0038CE0F82E8091B103C7
:1042A000C81748F01092B1031092B003CDB7DEB733
:1042B000E6E00C94FD2EEE24E394EC0EE092B003C5
:1042C0000C2F10E0CF9DE0011124CE54DC4F4B8128
:1042D0005C81698188810E94040681111DC08E81E4
:1042E0009F81892B21F488859985019651F4288135
:1042F00039814A815B816C817D818E819F810E94A1
:10430000D220F09EF001F19EF00D1124EE54FC4FEE
:104310001482138210925004CE2DC0CF1092390413
:10432000109238041092260180913704809336044D
:104330000E943D060E9440210895B0E0A0E0E3EA1B
:10434000F1E20C94D62EC091360497E0892E01E05C
:1043500010E02CE0322E3EEF932E442443948091C3
:1043600037048C1309C00E9440210E943D06CDB73E
:10437000DEB7E1E10C94F22ED0E0FE01EE0FFF1F5C
:10438000E25DFB4F80819181889ED001899EB00DB6
:104390001124AE5EBB4F14962C911497211158C076
:1043A0005090B103E2EBF3E030E020E0712C5D01CE
:1043B000251508F04BC0E284F384D501CD90DC9044
:1043C0006FEF7FEF612C462D50E0DA01AA0FBB1F83
:1043D000AC0DBD1D0D90BC91A02D109731F0EA16CB
:1043E000FB0609F4BA016394EECF6F3F7607A9F19B
:1043F000D80102C0AA0FBB1F6A95E2F77A2AB8015A
:10440000062C02C0660F771F0A94E2F7AB014150F9
:10441000510974161506F9F4329EF001339EF00D21
:104420001124EE54FC4F889ED001899EB00D1124BA
:10443000AE5EBB4F12962D913C9113973783268326
:10444000908291829187808715964C920E940F06E8
:104450002196C37084CF148213822F5F3F4F3C9606
:10446000A7CFA9E1B0E0E7E3F2E20C94D52E498BA7
:104470005A8B6B8B7C8B8D8B6111109250041D8637
:104480001E861F86188A85E0FE017196DE01199648
:1044900001900D928A95E1F78091600482FF1CC023
:1044A0000E9426052091030230910402821B930B87
:1044B0008838934120F08091050282FFE6C10E9476
:1044C00026052091260230912702821B930B883803
:1044D000934110F00E9450084C855D856A8589855E
:1044E0000E940406811111C061E0CE0109960E946C
:1044F000080C6C018B8547EFC4164CE5D40681F49B
:10450000882321F181E08093260129853A854B8516
:104510005C856D857E858F8598890E94D220C3C079
:1045200068EFC6166CE5D60629F4882379F00E9458
:104530008E21EBCF79EFC7167CE5D70639F48823B7
:1045400029F0809126018111F2CFDCCF02E114E045
:10455000E12CB12CA12C88248394912C2EEF522E87
:1045600044244394F8014081518166246A94762C56
:1045700020E0822F90E0FC01EE0FFF1FE40FF51FFB
:10458000608171816115710531F0C616D70609F495
:104590003C012F5FEECFF12CFFEF6F167F0609F481
:1045A00044C0F8014481F09026018F2D411180E034
:1045B000F82FF170FF2EF801258086819B859923C5
:1045C00009F4F2C0FF2009F4EFC0211014C0A401C7
:1045D000062C01C0440F0A94EAF7842B868380914D
:1045E000AE039091AF03C29730F462E370E0709332
:1045F000AF036093AE03C40102C0880F991F2A95D0
:10460000E2F70197F80126812817190671F48091C5
:10461000380490913904009709F449C00E940B05B1
:10462000C39708F444C0F8014482EF28FFEFAF1AA3
:10463000BF0A095F1F4F24E0A216B10409F092CF10
:104640008B85882309F40CC1EE2009F409C10E946E
:10465000260590933904809338048091B103883003
:1046600010F591E0980F9093B10398E0FE01399610
:10467000DE01119601900D929A95E1F73CE0839F3F
:10468000C00111248E549C4F28E0FE013196DC01BC
:1046900001900D922A95E1F72FEF3FEFFC01318752
:1046A0002087D386C2866996E2E10C94F12E809130
:1046B000360450913704982FF0E0E0E0851314C0E1
:1046C00090933604E017F10709F4AFCF90E0FC01B6
:1046D000EE0FFF1FE25DFB4FB182A0820196837057
:1046E000992780933704A1CF282E312CF101EE0FAA
:1046F000FF1FE25DFB4F20813181F7E0F29FD00187
:10470000F39FB00D1124AE5EBB4F2D913C911197DC
:10471000398F288F40E020E030E0E32FF0E0EE0F0B
:10472000FF1F688D798DE60FF71F6080718061141F
:104730007104E1F0F8010190F081E02DFF8BEE8B28
:1047400020E005C06616770609F44F2D2F5FE22F93
:10475000F0E0EE0FFF1F6E897F89E60FF71F608183
:1047600071816115710571F73F5FD7CF4423C9F09F
:10477000F801231708F0FD0144820E171F0721F4EA
:1047800090933604F42E51CF981305C0AE17BF078F
:1047900011F49F5F937091012F5F3F4F822F8370C1
:1047A0008DCFF0E0E0E0F7CF90E0211020C0B40121
:1047B00002C0660F771F2A95E2F79B01215031094D
:1047C0008217930731F4442309F448C0C5010E94BD
:1047D0000F06C401062C01C0880F0A94EAF7982F2F
:1047E0009095F801868189238683F22C1ECF9C0147
:1047F000062C02C0359527950A94E2F7A90141706D
:104800005527BC016150710986239723892B11F527
:10481000452B01F1F80182819381892BC1F01B8224
:104820001C821D821E8259825A820E942605816046
:10483000582F9D838C83F801828193818F83988781
:1048400029813A814B816D817E810E94D220F801BD
:104850001582BFCFF22FF1702F2EBBCF2F2CB9CFE7
:104860009091360480913704981731F00E949D2171
:10487000EE2009F44ACE17CF0E944021109239044D
:10488000109238040E943D06F3CF82E00E949410FB
:1048900016CEA5E0B0E0EFE4F4E20C94E32E8C0138
:1048A0009093AB038093AA03011580E21807C0F42C
:1048B000802F0E940B14C8010E9410099801205EED
:1048C00031092830310518F00115110531F40E9425
:1048D000FA132596E4E00C94FF2E0E94E913F9CF19
:1048E00080EF89838A831B820E9426058160782F4E
:1048F0009D838C8349815A816B818D810E943122F5
:10490000E8CF0F931F93CF93DF938C01EB016BE7FD
:1049100072E08C2F0E94160B892B71F4DD27CD5885
:10492000DD4F8881F801128218828330F1F048F45B
:10493000813059F0823081F0DF91CF911F910F913A
:1049400008958430B9F08530B9F780917B02909159
:104950007C02009789F306C080917D0290917E02CF
:10496000009799F30E944924E7CF80917F029091AC
:104970008002F6CF8091810290918202009791F798
:1049800020917B0230917C0280917D0290917E0289
:1049900021153105F1F2009729F7C901E3CFA5E010
:1049A000B0E0E5EDF4E20C94E52E9093AB03809338
:1049B000AA03811520E2920730F40E94281625965A
:1049C000E2E00C94012F80EF89838A8381E08B835E
:1049D0000E9426058160782F9D838C8349815A81AE
:1049E0006B818D810E943122EACFCF93DF93EC015E
:1049F0000E94CF24CE010E944924DF91CF910895D7
:104A00000F931F93CF93DF938C01862F6BE772E098
:104A10000E94160B892BB1F4C0917B02D0917C02CD
:104A2000209781F0F8018281833051F4CE010E94F9
:104A3000F524CE010E94F524CE010E94F52402C087
:104A40008430D0F7DF91CF911F910F9108950F938C
:104A50001F93CF93DF938C01EB016BE772E08C2FF8
:104A60000E94160B892B09F05CC0FE01FF27D801BC
:104A700012968C911297ED58FD4F8130B9F415962E
:104A80009C9192FF02C080830AC090FFFCCF82E01D
:104A9000808380917D0290917E020097B9F480918D
:104AA0007B0290917C020097E1F110C08230B9F551
:104AB00015968C9182FD28C080FD0BC083E0808319
:104AC00080917F0290918002009701F10E94CF2493
:104AD00028C084E0808380918102909182020097B7
:104AE000A9F780917B0290917C020097F9F00E94D7
:104AF000F52480917D0290917E02009739F7809194
:104B00007B0290917C02E2CF85E0808380917B02E2
:104B100090917C02009729F00E94F524F0CF86E066
:104B20008083DF91CF911F910F91089580917D0235
:104B300090917E02B8CF1F920F920FB60F92112460
:104B40002F933F934F935F936F937F938F939F9395
:104B5000AF93BF93CF93DF93EF93FF93D091E9008F
:104B6000DF708091EC00C82FC17080FDC0E810920A
:104B7000E9008091F000877F8093F00078940E9494
:104B80000A111092E9008091F00088608093F00093
:104B9000CD2BCF70C093E900FF91EF91DF91CF91C2
:104BA000BF91AF919F918F917F916F915F914F9145
:104BB0003F912F910F900FBE0F901F9018951F924D
:104BC0000F920FB60F9211242F933F934F935F9341
:104BD0006F937F938F939F93AF93BF93EF93FF93C5
:104BE0008091E10082FF09C08091E20082FF05C050
:104BF0008091E1008B7F8093E1008091DA0080FF5B
:104C000024C08091D80080FF20C08091DA008E7F80
:104C10008093DA008091D90080FF9DC080E189BD3A
:104C200082E189BD09B400FEFDCF81E0809392044A
:104C300080916404811109C00E9449030E943C04D0
:104C40008091E20084608093E2008091E10080FF27
:104C500017C08091E20080FF13C08091E2008E7F38
:104C60008093E2008091E20080618093E200809175
:104C7000D80080628093D80019BC85E080939204AC
:104C80008091E10084FF2BC08091E20084FF27C067
:104C900080E189BD82E189BD89B5982F917080FF3F
:104CA000FBCF8091D8008F7D8093D8008091E10068
:104CB0008F7E8093E1008091E2008F7E8093E200FE
:104CC0008091E20081608093E200809189048823D2
:104CD00009F447C084E0809392048091920480910B
:104CE000E10083FF27C08091E20083FF23C0809111
:104CF000E100877F8093E10082E08093920410922C
:104D000089048091E1008E7F8093E1008091E20030
:104D10008E7F8093E2008091E20080618093E200C8
:104D200042E060E080E00E940A048091F000886028
:104D30008093F000FF91EF91BF91AF919F918F9180
:104D40007F916F915F914F913F912F910F900FBE87
:104D50000F901F90189519BC109292041092640441
:104D600074CF8091E30087FD93E090939204B5CFD8
:104D700078941F921FB61F9211248F939F93AF9325
:104D8000BF9380915B0490915C04A0915D04B0910D
:104D90005E040196A11DB11D80935B0490935C0499
:104DA000A0935D04B0935E04BF91AF919F918F91EA
:104DB0001F901FBE1F9018951F921FB61F9211249F
:104DC0008F939F93AF93BF9380915A04811113C027
:104DD00080915B0490915C04A0915D04B0915E04AD
:104DE0004196A11DB11D80935B0490935C04A09338
:104DF0005D04B0935E04BF91AF919F918F911F901E
:104E00001FBE1F901895CDB7DEB7E5970FB6F89483
:104E1000DEBF0FBECDBF85B7806885BF85B7806810
:104E200085BF84B7877F84BF0FB6F894A89580911B
:104E30006000886180936000109260000FBE80E87F
:104E400090E00FB6F89480936100909361000FBEDC
:104E500083E796E090937F0180937E010E944E0647
:104E60000E94EB0C0E945F0C0E9449030E943C04CC
:104E70008091E20084608093E200789480919204B3
:104E80008823A1F01091E9001F709091EC00892F08
:104E9000817090FD80E8182B1092E9008091E80065
:104EA00083FD0E940A111F701093E90082E084BD07
:104EB00093E095BD9AEF97BD80936E0010924B02E0
:104EC00010924C0210924D0210924E020E94380C29
:104ED000811102C00E94060B26982E988FE891E05F
:104EE0000197F1F700C0000083B186FB882780F9A5
:104EF000809319010E94E80981110E94732D80910D
:104F000019018091190194E0811190E09093580269
:104F100084E0891B8093570287E90E94750686EC1E
:104F20000E94750684E30E94750685E30E9475065B
:104F300007E611E07EE6E72E71E0F72ED8018D91AD
:104F40008D018F3F11F00E947506E016F106B1F752
:104F500088E0EBE6F2E0DF01282F1D922A95E9F7C1
:104F6000EFE4F2E0DF011D928A95E9F790E080E03E
:104F70000E94572F883E9E4F21F40E94380C8111C9
:104F800002C00E94401682E090E00E944F2F809362
:104F90005B020E94510C9093600480935F040E9416
:104FA000410EEFEFF9EF20E0E150F0402040E1F753
:104FB00000C000000E94410E80916B0280FF08C07B
:104FC0006FEF7FEF90E080E00E947B2F0E94FA0459
:104FD00083E090E00E944F2F0E94EF100E94E809AA
:104FE000811102C00E94762D8AE191E090935704CE
:104FF000809356048BE692E038E0380F3DABCE014B
:1050000001967C018091920460E4D62E00E112E1C9
:10501000853009F482C00E94410E4CE5C42E42E066
:10502000D42E5BE6A52E52E0B52E24E632E0D50163
:10503000F60191918D912E173F0709F478C09817CA
:10504000C1F30E94E809682E10E0F50101915F01AB
:10505000D6017D906D01701629F17026912C88245F
:105060008394872D8821B1F06620A1F098AA19AB0E
:1050700091E0802F882109F490E09AAB0E942605E8
:105080008160782F9CAB8BAB48A959A96AA98CA9E0
:105090000E9431229394880CB7E09B12E2CFF60174
:1050A000319700831F5F183081F60E941A055FC098
:1050B00080919204843019F110925A04A8E1B0E072
:1050C0000FB6F894A895A09360000FBED092600030
:1050D00083B7817F846083BF83B7816083BF789407
:1050E000889583B78E7F83BF0FB6F894A89580917B
:1050F0006000886180936000109260000FBE809114
:105100008804882351F00E94410EEBE6F2E0819181
:10511000811173C4BDA9BE13FACF8091920485306A
:1051200009F4C6CF0E94F4100E940B0A74CF9813A2
:1051300088CF0E9426058C018091590290915A02D5
:1051400008171907A1F08FEF8BA78CA71DA60E9447
:1051500026058160782F9FA78EA74BA55CA56DA51E
:105160008FA50E94312210935A02009359020E9487
:10517000E809882309F48DC08091490490914A047C
:10518000892B09F43EC040913E0450913F04609148
:105190004004709141042FB7F89480915B04909182
:1051A0005C04A0915D04B0915E042FBF841B950B3D
:1051B000A60BB70B40913A0450913B0460913C041C
:1051C00070913D0484179507A607B707D0F080912A
:1051D000490490914A040E94281610924A041092A1
:1051E000490410923E0410923F0410924004109221
:1051F000410410923A0410923B0410923C04109225
:105200003D04009152041091530401151105E9F079
:1052100080916402909165020E940B056C01C801A7
:105220000E942A0B8C159D0580F480915204EEE0BB
:105230008E9FC0011124FC01E657FD4F208122FD05
:1052400004C08B579D4F0E943E10809126018823F9
:1052500001F180913804909139040097D1F00E94B7
:105260000B052091AE033091AF032817390788F45E
:105270009091360480913704981709F44DC00E942C
:105280009D211092AF031092AE0310923904109238
:1052900038040E940B0A90916602891721F08093CE
:1052A00066020E941A0580919204843009F0AACE09
:1052B00083E08093E9008091E80082FFA3CE809193
:1052C000E80090E085FF05C00E946803882369F12B
:1052D00091E08091E8008B778093E800992309F4AE
:1052E00091CE0091AC031091AD0389810115110598
:1052F000C9F18E3F09F0BBC08A81833020F0855010
:10530000833008F0B4C0EA81EE3008F0B0C0F0E0BD
:10531000EF54F04D0C940C2F0E9440211092390450
:10532000109238040E943D06B4CF00E210E09E01C6
:105330002F5F3F4F69018091E80085FD0AC0809191
:10534000E8008B778093E8000E946803882399F334
:10535000BFCF8091F100D6018D936D0101501109ED
:1053600051F7B6CF8C3009F4CDC058F5843009F42C
:10537000B0C058F4823009F469C008F09BC0813095
:1053800009F460C08FEF898372C0863009F4B7C01A
:1053900008F4AAC08B30B1F78091A8039091A903BB
:1053A000892B09F464C0CE0101960E94C3032FEF3C
:1053B00031EE84E0215030408040E1F700C0000031
:1053C00005CE803109F4CEC088F58E3009F4A1C035
:1053D00008F49BC08091A8039091A903892B09F43C
:1053E00046C00C8110E00D31110508F040C0CA80A4
:1053F000DB80DC24CD24DC2457010E0D1F1DC601EB
:1054000081559D4FA016B10691F1F1E5CF16F1E05F
:10541000DF0628F4D50114966C910E945D2FBFEF32
:10542000AB1ABB0AEFEFCE1ADE0AE9CF823109F4DC
:105430009EC008F49AC0833109F4C1C08E3F09F0C0
:10544000A1CF61CF1A8289E08B8311C08A8182301B
:1054500009F4E9C2833079F0813009F093CF0E94DA
:105460001A050E94122F6B837C838D839E83C70154
:105470000E94C303C7CD8091A8039091A903892BF3
:10548000B1F380916B028B8380916C028C8380914D
:105490006D028D8380916E028E8380916F028F8367
:1054A0008091700288878091710289878091720251
:1054B0008A87DDCF8A81823009F064CF6B817C815D
:1054C0008D819E810E94122F86E290E00E945D2FC6
:1054D000CECF4C816B818A810E94460B9827892709
:1054E00098279E838D83C3CF2D813E81322723272A
:1054F00032274C816B818A810E942C0AB8CF0E948E
:105500006B0AB5CF80E18A83B2CF81E08A8381E5DF
:105510009BCF0C8110E00D31110508F0A8CFCA8097
:10552000DB80DC24CD24DC2457010E0D1F1DC601B9
:1055300081559D4F0A151B0509F499CFB1E5CB168E
:10554000B1E0DB0658F40E944F2FF5018483BFEFD2
:10555000CB1ADB0AEFEFAE1ABE0AE9CFD5011496DB
:105560001C92F5CF0E941C0A82CF84E0CCCF0C8124
:1055700010E00D31110508F07ACFCA80DB80DC2401
:10558000CD24DC2457010E0D1F1DC60187960A1578
:105590001B0509F46CCFF0ECCF16F1E0DF0660F4E8
:1055A0000E944F2FD50114968C93FFEFCF1ADF0A7C
:1055B0002FEFA21AB20AE9CFF5011482F6CFCC8000
:1055C000D12C3DE1C316D10408F051CF0A811B81D3
:1055D000102701271027003C81E0180708F047CF6B
:1055E00080EC91E0801B910B8C159D0508F43FCF5A
:1055F000380197E2690E711C8091A8039091A9036C
:105600002601400E511E892BA1F55801A1E0AA22C6
:10561000BB2400FF0DC0C80186960E944F2F9D81BC
:1056200089279827892781159C4511F48FEF8D8351
:10563000460140FE17C0E1E08E1A910835E0232EA6
:10564000312C2C0E3D1E280C391CC3018C0D9D1DC8
:105650000E944F2FD1019C9181159C4519F48FEF29
:10566000F1018083F701EA0DFB1D2FEFA814B904A7
:1056700010F0670119C09481858181159C4511F452
:105680002483258382E0A80EB11C3296EFCF003C24
:10569000A1E01A0720F4F60164810E945D2FFFEF5C
:1056A000CF1ADF0A0F5F1F4FC801879640165106B9
:1056B00071F7DDCE88E0E8E2F1E0DE01919601903D
:1056C0000D928A95E1F780E2D7011D928A95E9F75C
:1056D00085E0898388E0FE01B196DE011596019090
:1056E0000D928A95E1F7C3CE88E8898381E08A83A9
:1056F0001B821C82BCCE8C81682F70E0762F6627BF
:105700008B81860F972F911D092E000CAA0BBB0BC6
:1057100025E0880F991FAA1FBB1F2A95D1F7AC015E
:10572000BD01405E5F4F6F4F7F4F481759076A07B3
:105730007B0708F49CCE8838E1E09E07A105B105FF
:1057400008F095CE4938F1E05F076105710520F05A
:1057500048E851E060E070E0481B590BBC01655817
:105760007E4FC7010E94192F82CE4AE150E06FEFB1
:1057700070E0CE0107960E94382F8091A80389839C
:105780000A831B821C821D8281E08E8370CE81E0A1
:1057900090E09093AD038093AC0382E390E090930C
:1057A0006A02809369020E942605909368028093A2
:1057B00067025DCE012B51F110916B02809167025F
:1057C000909168020E940B058536910540F111FF0A
:1057D00026C010FF24C00E94260590936802809383
:1057E00067028091690290916A02019790936A0220
:1057F00080936902892B51F41092AD031092AC038F
:1058000081E090E09093A9038093A8038091A8037E
:1058100089838091AC038A838091690215CE82E3EB
:1058200090E090936A0280936902F0CF1092A903EE
:105830001092A8031CCE40E250E06FEF70E0C70169
:105840000E94382F14CEEB81E73008F010CEF0E044
:10585000E154F04D0C940C2FFE0133968EE1DF01E4
:105860001D928A95E9F788E0898394E09A83ECCDCC
:105870008C811AE06E01B1E2CB0ED11CF601212F12
:1058800011922A95E9F7B6010E94160B8983F60159
:10589000DE01129601900D921A95E1F7E8CD1C8178
:1058A0008AE0FE013596DE01919601900D928A956F
:1058B000E1F789A19AA10E9466069AA389A38BA108
:1058C0009CA10E9466069CA38BA38DA19EA10E9411
:1058D00066069EA38DA38FA198A50E94660698A731
:1058E0008FA38FEF183068F43AE0139FB0011124B2
:1058F00069517E4F4AE050E0CE0181960E94812F8F
:1059000080E089830E944E06B2CD6C812AE0CE01F0
:105910008196DC01E22F1D92EA95E9F7643008F0E8
:1059200046C0629FB0011124695C7D4F4AE050E09F
:105930000E943F2F80E089838AE0FE01B196DE015C
:105940001296CDCE1C818AE0FE013596DE0191963D
:1059500001900D928A95E1F789A59AA50E946606A5
:105960009AA789A78FEF143068F4FAE01F9FB0015F
:105970001124695C7D4F4AE050E0CE0181960E947F
:10598000812F80E089830E94EB0C71CD6C812AE02D
:10599000CE018196DC01E22F1D92EA95E9F768308D
:1059A00030F4629FB0011124615A7D4FBFCF8FEF59
:1059B000C2CF1C818AE0FE013596DE0191960190EE
:1059C0000D928A95E1F78BA19CA10E9466069CA38B
:1059D0008BA38FEF183068F4FAE01F9FB0011124F9
:1059E000615A7D4F4AE050E0CE0181960E94812F9E
:1059F00080E089830E945F0C3ACD09BD19BD09B4CE
:105A000000FEFDCF8091D8008F7D8093D8008091DB
:105A1000E00082608093E0008091E00081FDFCCF97
:105A20000E94F4107ACB86E290E00E944F2F1B82F6
:105A30001C821D82AACE8EE1489B02C08150E1F7F4
:105A4000489BFECF0895589880E28A95F1F7589ABE
:105A50000895FC013BE03A95F1F798E020E080E002
:105A600031E040E14A95F1F7880F489B02C0816020
:105A7000232742E04A95F1F7000040E14A95F1F70B
:105A8000915079F790E19A95F1F799B132E03A9512
:105A9000F1F7000040E14A95F1F7917092272081DB
:105AA000920F90830895A1E0B0E0E9E5FDE20C9447
:105AB000E12E19828C017C01E60EF11C0E151F05EA
:105AC00041F481E09981911180E02196E6E00C9407
:105AD000FD2E0E941B2DCE0101960E94292DF8015A
